:060000000A128A1110280B
:10000800FE00030EF4000408F5000A08F6007F0855
:10001800F7000A128A11972A0A128A1113288313E1
:100028003130FD000330FE002D30FF002030840009
:100038000A128A111E230A128A11B101B201B301F0
:10004800B401B501B601B701B801B901BA01BB01E4
:10005800BC0183010A128A1131280A128A114C2222
:100068000A128A11831203133C08031D3C283D28F9
:10007800472801300A128A11D8220A128A118312DB
:100088000313BC01BC0A31303B06031D4C284D2824
:10009800E028BC01BB016430BD000030BE00390857
:1000A800C600C7014608BF004708C0000A128A11E7
:1000B800FA200A128A11831203133D08C80048085F
:1000C800B8006430BD000030BE003908C600C70162
:1000D8004608BF004708C0000A128A1163210A12A5
:1000E8008A11831203133D08C8004808B2000A3079
:1000F800BD000030BE003208C600C7014608BF0078
:100108004708C0000A128A11FA200A128A118312BB
:1001180003133D08C8004808B7000A30BD00003086
:10012800BE003208C600C7014608BF004708C00025
:100138000A128A1163210A128A11831203133D08D5
:10014800C8004808B6003808203E84008313000819
:10015800C6004608B5003708203E84000008C600DF
:100168004608B4003608203E84000008C600460849
:10017800B3003508C6004608AA003408C600460879
:10018800AB003308C6004608AC00B101D9280C1EE4
:10019800CE28CF28D92831082A3E840083130008A6
:1001A80099000130C6004608B10707303102031C28
:1001B800DE28DF28CB28F12832303B06031DE5284E
:1001C800E628F1282C300A128A11D8220A128A113C
:1001D80083120313BB01BA01BA0A9F18F428F52841
:1001E80036289F1436280A128A11102883120313FE
:1001F800C301BE1F002901290829BD09BE09BD0A7E
:100208000319BE0AC301C30AC01F0B290C291529EB
:10021800BF09C009BF0A0319C00A0130C10041085B
:10022800C306C401C5013D083E0403191C291D2944
:100238005429C201C20A2B2901300310BD0DBE0D7D
:10024800FF3E031D21290130C1004108C207BE1F1E
:100258002E292F29202901300310C40DC50DFF3E7A
:10026800031D30293E084002031D3C293D083F027A
:10027800031C3F29402947293D08BF023E08031CAB
:10028800C003C002441401300310BE0CBD0CFF3E75
:10029800031D48290130C202031D532954292F295F
:1002A80043080319582959295E29C409C509C40AEC
:1002B8000319C50A4508BE004408BD00080083129A
:1002C8000313C301C01F69296A297129BF09C0091D
:1002D800BF0A0319C00AC301C30ABE1F74297529BE
:1002E8007A29BD09BE09BD0A0319BE0A3D083E04A4
:1002F80003197F298029AF29C201C20A8E2901303A
:100308000310BD0DBE0DFF3E031D84290130C10041
:100318004108C207BE1F9129922983293E0840023D
:10032800031D98293D083F02031C9B299C29A229EB
:100338003D08BF023E08031CC003C0020130031081
:10034800BE0CBD0CFF3E031DA3290130C202031DD4
:10035800AE29AF29922943080319B329B429B92929
:10036800BF09C009BF0A0319C00A4008BE003F08F8
:04037800BD000800BC
:1004000002308A000408840A8207003431342E3412
:1004100020344C34653465347234203470346F3495
:10042000743465346E34633469346F346D346534D8
:10043000743472346F340A34203432342E3420341D
:1004400045346E3476346934613472342034613426
:10045000733463346934693420340A3420340A3400
:10046000003449346E34673472346534733465341F
:100470002034643469346734693474346F3420341C
:100480000A340A3400344534523452344F3452342E
:1004900020340A340A3400340130831603178800EC
:1004A000890101308316031385008601831203132B
:1004B0008601831603130F088F3940388F000F14FD
:1004C000181218158316031787151930831603138E
:1004D00099009A01831203139817831603131813B4
:1004E00098168312031318160C13831603130C1794
:1004F0008B170B178C16831203131F083F394038D4
:100500009F00831603131F129F12C330831203131D
:100510009F05831603139F13831203131F140230C6
:1005200083120313BD00BD0B932A00000800831241
:1005300003138C1E9C2A9D2AC22A3A08031DA12A55
:10054000A22AB92A1A08F3007308BB0031303B060F
:100550000319AB2AAC2AC22A32303B060319B12A4E
:10056000B22AC22A3E300A128A11FB220A128A11CA
:10057000C22A3A03031DBD2ABE2AC22A1A088600CF
:10058000BA01BC01831203130C1FC72AC82ACD2A43
:100590001E08F3007308B9000C137708FF007608F3
:1005A0008A0075088400740E8300FE0E7E0E09001A
:1005B00083120313BF00EE2A3F0884000A128A1137
:1005C00000220A128A110A128A113E230A128A1183
:1005D000013083120313BE003E08BF073F088400AA
:1005E0000A128A1100220A128A11003A031DF92AFE
:1005F000FA2ADC2A0800F2000D2B720884000A1285
:100600008A1100220A128A110A128A114C230A1234
:100610008A110130F1007108F207720884000A1291
:100620008A1100220A128A11003A031D182B192B75
:10063000FD2A08007E088A007F0882000A128A11BB
:100640001A230A128A118000840A04087D060319FD
:100650000034FF0A0319FE0A1E2B303431343234C1
:100660003334343435343634373438343934203450
:10067000203420340D340A340D340A348312031329
:10068000BD0083160313981C462B472B412B831266
:1006900003133D0899000800F00083160313981C0B
:1006A000522B532B4D2B7008831203139900080013
:08400000FF3FFF3FFF3FFF3FC0
:04400E00D420FF3F7C
:00000001FF
